{
  "contractName": "Donation",
  "abi": [
    {
      "constant": true,
      "inputs": [],
      "name": "stake",
      "outputs": [
        {
          "name": "",
          "type": "uint256"
        }
      ],
      "payable": false,
      "stateMutability": "view",
      "type": "function",
      "signature": "0x3a4b66f1"
    },
    {
      "constant": true,
      "inputs": [
        {
          "name": "",
          "type": "uint256"
        }
      ],
      "name": "donors",
      "outputs": [
        {
          "name": "",
          "type": "address"
        }
      ],
      "payable": false,
      "stateMutability": "view",
      "type": "function",
      "signature": "0x4abfa163"
    },
    {
      "constant": true,
      "inputs": [],
      "name": "verifierAddr",
      "outputs": [
        {
          "name": "",
          "type": "address"
        }
      ],
      "payable": false,
      "stateMutability": "view",
      "type": "function",
      "signature": "0x663ea2e2"
    },
    {
      "constant": true,
      "inputs": [],
      "name": "startTime",
      "outputs": [
        {
          "name": "",
          "type": "uint256"
        }
      ],
      "payable": false,
      "stateMutability": "view",
      "type": "function",
      "signature": "0x78e97925"
    },
    {
      "constant": true,
      "inputs": [],
      "name": "daysAfter",
      "outputs": [
        {
          "name": "",
          "type": "uint256"
        }
      ],
      "payable": false,
      "stateMutability": "view",
      "type": "function",
      "signature": "0xb4d52c8d"
    },
    {
      "inputs": [],
      "payable": true,
      "stateMutability": "payable",
      "type": "constructor",
      "signature": "constructor"
    },
    {
      "anonymous": false,
      "inputs": [
        {
          "indexed": false,
          "name": "_badgeId",
          "type": "uint256"
        },
        {
          "indexed": false,
          "name": "_amt",
          "type": "uint256"
        }
      ],
      "name": "DonatedChange",
      "type": "event",
      "signature": "0xa3d4fcc923ce440f16f3f2cf8cca1eb001c44f73db9689be5581046d9289f2d5"
    },
    {
      "anonymous": false,
      "inputs": [
        {
          "indexed": false,
          "name": "_completionTime",
          "type": "uint256"
        }
      ],
      "name": "Completed",
      "type": "event",
      "signature": "0xdfd517ed69f8a0a57d49fe494e4864fac3cfe3585c14c0bfddf39f72463ec3fd"
    },
    {
      "constant": false,
      "inputs": [
        {
          "name": "badgeId",
          "type": "uint256"
        }
      ],
      "name": "donateChange",
      "outputs": [
        {
          "name": "",
          "type": "uint256"
        }
      ],
      "payable": true,
      "stateMutability": "payable",
      "type": "function",
      "signature": "0x2453e3e5"
    },
    {
      "constant": false,
      "inputs": [],
      "name": "attestCompletion",
      "outputs": [],
      "payable": false,
      "stateMutability": "nonpayable",
      "type": "function",
      "signature": "0x87140e0a"
    },
    {
      "constant": true,
      "inputs": [],
      "name": "getDonors",
      "outputs": [
        {
          "name": "",
          "type": "address[16]"
        }
      ],
      "payable": false,
      "stateMutability": "view",
      "type": "function",
      "signature": "0x96f300d4"
    }
  ],
  "bytecode": "0x608060405233601060006101000a81548173ffffffffffffffffffffffffffffffffffffffff021916908373ffffffffffffffffffffffffffffffffffffffff1602179055506040805190810160405280600881526020017f4d696e6973746572000000000000000000000000000000000000000000000000815250601190805190602001906100909291906100f9565b5073f7d8385e9f3800768b562a433db7a269caddc42c601260006101000a81548173ffffffffffffffffffffffffffffffffffffffff021916908373ffffffffffffffffffffffffffffffffffffffff160217905550600060135542601455606460155561019e565b828054600181600116156101000203166002900490600052602060002090601f016020900481019282601f1061013a57805160ff1916838001178555610168565b82800160010185558215610168579182015b8281111561016757825182559160200191906001019061014c565b5b5090506101759190610179565b5090565b61019b91905b8082111561019757600081600090555060010161017f565b5090565b90565b61057c806101ad6000396000f3fe60806040526004361061008e576000357c0100000000000000000000000000000000000000000000000000000000900463ffffffff1680632453e3e5146100935780633a4b66f1146100d55780634abfa16314610100578063663ea2e21461017b57806378e97925146101d257806387140e0a146101fd57806396f300d414610214578063b4d52c8d14610267575b600080fd5b6100bf600480360360208110156100a957600080fd5b8101908080359060200190929190505050610292565b6040518082815260200191505060405180910390f35b3480156100e157600080fd5b506100ea61032a565b6040518082815260200191505060405180910390f35b34801561010c57600080fd5b506101396004803603602081101561012357600080fd5b8101908080359060200190929190505050610330565b604051808273ffffffffffffffffffffffffffffffffffffffff1673ffffffffffffffffffffffffffffffffffffffff16815260200191505060405180910390f35b34801561018757600080fd5b50610190610365565b604051808273ffffffffffffffffffffffffffffffffffffffff1673ffffffffffffffffffffffffffffffffffffffff16815260200191505060405180910390f35b3480156101de57600080fd5b506101e761038b565b6040518082815260200191505060405180910390f35b34801561020957600080fd5b50610212610391565b005b34801561022057600080fd5b506102296104a5565b6040518082601060200280838360005b83811015610254578082015181840152602081019050610239565b5050505090500191505060405180910390f35b34801561027357600080fd5b5061027c610526565b6040518082815260200191505060405180910390f35b60007fa3d4fcc923ce440f16f3f2cf8cca1eb001c44f73db9689be5581046d9289f2d58234604051808381526020018281526020019250505060405180910390a1336000836010811015156102e357fe5b0160006101000a81548173ffffffffffffffffffffffffffffffffffffffff021916908373ffffffffffffffffffffffffffffffffffffffff160217905550819050919050565b60135481565b60008160108110151561033f57fe5b016000915054906101000a900473ffffffffffffffffffffffffffffffffffffffff1681565b601260009054906101000a900473ffffffffffffffffffffffffffffffffffffffff1681565b60145481565b601260009054906101000a900473ffffffffffffffffffffffffffffffffffffffff1673ffffffffffffffffffffffffffffffffffffffff163373ffffffffffffffffffffffffffffffffffffffff161415156103ea57fe5b620151806015540260145401421115151561040157fe5b7fdfd517ed69f8a0a57d49fe494e4864fac3cfe3585c14c0bfddf39f72463ec3fd426040518082815260200191505060405180910390a1601060009054906101000a900473ffffffffffffffffffffffffffffffffffffffff1673ffffffffffffffffffffffffffffffffffffffff166108fc6013549081150290604051600060405180830381858888f193505050501580156104a2573d6000803e3d6000fd5b50565b6104ad61052c565b600060108060200260405190810160405280929190826010801561051c576020028201915b8160009054906101000a900473ffffffffffffffffffffffffffffffffffffffff1673ffffffffffffffffffffffffffffffffffffffff16815260200190600101908083116104d2575b5050505050905090565b60155481565b6102006040519081016040528060109060208202803883398082019150509050509056fea165627a7a72305820c4343a31ed2be47bc0dd880396a7f0dd8de8bb7da1067cd789e4f9a9a5a9c8590029",
  "source": "pragma solidity ^0.5.0;\n\ncontract Donation {\n    address[16] public donors;\n    address payable owner = msg.sender;\n    string verifierName = \"Minister\";\n    address public verifierAddr = 0xF7d8385E9f3800768b562A433db7a269CADDc42C; \n    uint public stake = 0 ether; \n    uint public startTime = block.timestamp;\n    uint public daysAfter = 100;\n    \n    event DonatedChange(uint _badgeId, uint _amt);\n    event Completed(uint _completionTime);\n    \n    // Checking if payable\n    constructor() public payable{\n        // assert(msg.value >= stake);\n    }\n    \n    // Making a donation\n    function donateChange(uint badgeId) public payable returns(uint){\n        emit DonatedChange(badgeId, msg.value);\n        donors[badgeId] = msg.sender;\n        return badgeId;\n    }\n    \n    // Checking if a pledge is completed\n    function attestCompletion() public{\n        assert(msg.sender==verifierAddr);\n        assert(now <= startTime + daysAfter*1 days);\n        emit Completed(now);\n        owner.transfer(stake);\n    }\n\n    // Retrieving the donors\n    function getDonors() public view returns(address[16] memory){\n        return donors;\n    }       \n}\n",
  "sourcePath": "/mnt/c/Users/Zephyr/Documents/GitHub/b-cat/contracts/Donation.sol",
  "compiler": {
    "name": "solc",
    "version": "0.5.0+commit.1d4f565a.Emscripten.clang"
  },
  "schemaVersion": "3.0.3",
  "updatedAt": "2019-03-16T16:58:11.447Z",
  "devdoc": {
    "methods": {}
  },
  "userdoc": {
    "methods": {}
  }
}